:100000000C9446000C9465000C9465000C946500FB
:100010000C9465000C9465000C9465000C946500CC
:100020000C9465000C9465000C9465000C946500BC
:100030000C9465000C94C0010C9465000C94650050
:100040000C9465000C9465000C9465000C9465009C
:100050000C9465000C9465000C9465000C9465008C
:100060000C9465000C9465000C9465000C9465007C
:100070000C9465000C9465000C9465000C9465006C
:100080000C9465000C9465000C94650011241FBE4F
:10009000CFEFD0E4DEBFCDBF11E0A0E0B1E0E4EEF1
:1000A000F9E000E00BBF02C007900D92A831B10744
:1000B000D9F721E0A8E1B1E001C01D92A633B20753
:1000C000E1F70E942E040C94F0040C940000CF93EE
:1000D000DF9300D01F92CDB7DEB789837B836A831D
:1000E00089818A3031F48A819B81BC018DE00E9434
:1000F000670080EC90E0FC018081882F90E08072A6
:100100009927892BB1F386EC90E02981FC012083AB
:1001100080E090E00F900F900F90DF91CF910895C5
:10012000CF93DF9300D000D0CDB7DEB769837A8359
:100130008B839C8389819A81AB81BC8180930E01E2
:1001400090930F01A0931001B093110180910E01C3
:1001500090910F01A0911001B091110180931901AC
:1001600090931A01A0931B01B0931C0100000F9003
:100170000F900F900F90DF91CF910895CF93DF9361
:10018000CDB7DEB781E890E02BE0FC01208388E862
:1001900090E02DE730E0FC01318320838FE690E092
:1001A00022E0FC01208384E890E0FC0111821082AF
:1001B00080910E0190910F01A0911001B091110159
:1001C0008093190190931A01A0931B01B0931C0115
:1001D0008FE590E02FE530E0F90120812068FC01F7
:1001E00020830000DF91CF910895CF93DF93CDB7A7
:1001F000DEB781E890E0FC0110820000DF91CF9132
:1002000008950F931F93CF93DF931F92CDB7DEB75F
:100210001982A6C08981282F30E0C901880F991F53
:10022000820F931F880F991F880F991F8C5D9E4F17
:10023000FC0120813181428153818981682F70E0E6
:10024000CB01880F991F860F971F880F991F880F62
:10025000991F805E9E4FFC0180819181A281B381B4
:10026000281739074A075B0708F449C08981082F16
:1002700010E08981282F30E0C901880F991F820F73
:10028000931F880F991F880F991F885D9E4FFC014F
:10029000408151818981282F30E0C901880F991F41
:1002A000820F931F880F991F880F991F825E9E4FA0
:1002B000FC0180819181FA0109959C01C801880F98
:1002C000991F800F911F880F991F880F991F825EB9
:1002D0009E4FFC01318320838981282F30E0C901A2
:1002E000880F991F820F931F880F991F880F991FDE
:1002F0008C5D9E4FFC0110821182128213828981D3
:10030000682F70E08981282F30E0C901880F991F7C
:10031000820F931F880F991F880F991F8C5D9E4F26
:10032000FC0180819181A281B38124E630E040E02C
:1003300050E0280F391F4A1F5B1FCB01880F991F00
:10034000860F971F880F991F880F991F8C5D9E4FEE
:10035000FC01208331834283538389818F5F8983AA
:100360008981282F30E082E090E02817390708F4CF
:1003700051CF00000F90DF91CF911F910F91089501
:100380001F920F9200905F000F92112400905B006B
:100390000F922F933F934F935F936F937F938F931E
:1003A0009F93AF93BF93EF93FF93CF93DF93CDB71B
:1003B000DEB78091190190911A01A0911B01B091B3
:1003C0001C010197A109B1098093190190931A01A9
:1003D000A0931B01B0931C018091190190911A0107
:1003E000A0911B01B0911C01892B8A2B8B2B91F4BE
:1003F0000E94010180910E0190910F01A0911001C6
:10040000B09111018093190190931A01A0931B01DF
:10041000B0931C010000DF91CF91FF91EF91BF914C
:10042000AF919F918F917F916F915F914F913F918C
:100430002F910F9000925B000F9000925F000F9041
:100440001F901895CF93DF9300D01F92CDB7DEB7E2
:100450008B831A82198227C088E290E028E0FC0191
:10046000208388E290E028E230E0F9012081422FE9
:100470002B81222F30E0098002C0359527950A9400
:10048000E2F72170242BFC01208388E290E028E22F
:1004900030E0F90120812260FC01208389819A816A
:1004A00001969A83898389819A810897ACF288E2C0
:1004B00090E028E230E0F90120812460FC012083F3
:1004C00088E290E0FC01108200000F900F900F90E6
:1004D000DF91CF910895CF93DF9300D0CDB7DEB7F2
:1004E0009A83898389819A818230910509F491C028
:1004F000833091052CF4009759F0019781F07BC16E
:100500008330910509F4E9C0049709F449C173C126
:1005100010921D0181E090E09A8389836CC180E292
:1005200090E0FC018081882F90E08170992731E074
:10053000892B09F030E080E290E0FC018081882F77
:1005400090E08270992721E0892B09F420E0832F25
:100550008223882379F082E090E09A8389838091D6
:100560001D018F3F09F442C180911D018F5F80936F
:100570001D013CC180E290E0FC018081882F90E069
:100580008170992721E0892B09F020E080E290E03A
:10059000FC018081882F90E08095909595958795B6
:1005A00081708223882339F084E090E09A838983E4
:1005B00010921D011BC180E290E0FC018081882F18
:1005C00090E08170992721E0892B09F420E080E2F6
:1005D00090E0FC018081882F90E080959095959522
:1005E000879581708223882379F083E090E09A8355
:1005F000898380911D01882309F4F8C080911D0131
:10060000815080931D01F2C081E090E09A8389833C
:10061000EDC080E290E0FC018081882F90E0817045
:10062000992731E0892B09F030E080E290E0FC016D
:100630008081882F90E08270992721E0892B09F42E
:1006400020E0832F8223882329F082E090E09A83A0
:100650008983CEC080E290E0FC018081882F90E009
:100660008170992731E0892B09F430E080E290E035
:10067000FC018081882F90E08270992721E0892BEE
:1006800009F420E0832F8223882329F081E090E081
:100690009A838983ADC080E290E0FC018081882F3D
:1006A00090E08170992721E0892B09F020E080E219
:1006B00090E0FC018081882F90E080959095959541
:1006C000879581708223882309F492C084E090E0AA
:1006D0009A83898310921D018BC080E290E0FC0117
:1006E0008081882F90E08095909595958795282F0B
:1006F000217080E290E0FC018081882F90E0817081
:10070000992731E0892B09F430E0822F8323882355
:1007100029F083E090E09A8389836CC080E290E0C6
:10072000FC018081882F90E08170992731E0892B2E
:1007300009F430E080E290E0FC018081882F90E0B5
:100740008270992721E0892B09F420E0832F8223EE
:10075000882329F081E090E09A8389834BC080E26E
:1007600090E0FC018081882F90E08170992721E042
:10077000892B09F020E080E290E0FC018081882F45
:1007800090E0809590959595879581708223882338
:1007900089F184E090E09A83898310921D012AC038
:1007A00080E290E0FC018081882F90E082709927A0
:1007B00031E0892B09F430E080E290E0FC01808197
:1007C000882F90E08170992721E0892B09F420E09F
:1007D000832F8223882329F081E090E09A83898304
:1007E0000AC084E090E09A83898305C0000003C0BA
:1007F000000001C0000089819A810F900F90DF9165
:10080000CF910895CF93DF9300D0CDB7DEB79A8311
:10081000898389819A81009719F0019731F00AC084
:1008200081E090E09A83898305C081E090E09A831B
:100830008983000089819A81009741F0019709F02E
:1008400006C080911D010E94220201C00000898122
:100850009A810F900F90DF91CF910895CF93DF93FE
:100860001F92CDB7DEB781E290E0FC01108282E2F8
:1008700090E02FEFFC01208387E290E02FEFFC0156
:10088000208388E290E0FC01108219828981282F60
:1008900030E0C901880F991F820F931F880F991F9D
:1008A000880F991F825E9E4FFC0111821082898100
:1008B000282F30E0C901880F991F820F931F880FDE
:1008C000991F880F991F9C01205E3E4F84E690E09F
:1008D000A0E0B0E0F90180839183A283B383898192
:1008E000282F30E0C901880F991F820F931F880FAE
:1008F000991F880F991F8C5D9E4FFC0110821182F9
:10090000128213828981282F30E0C901880F991F34
:10091000820F931F880F991F880F991F885D9E4F24
:100920002BE632E0FC013183208389818F5F89834C
:100930008981282F30E0C901880F991F820F931FEA
:10094000880F991F880F991F825E9E4FFC011182AC
:1009500010828981282F30E0C901880F991F820FEA
:10096000931F880F991F880F991F9C01205E3E4F8F
:1009700084E690E0A0E0B0E0F90180839183A28357
:10098000B3838981282F30E0C901880F991F820F16
:10099000931F880F991F880F991F8C5D9E4FFC0134
:1009A00010821182128213828981282F30E0C901BE
:1009B000880F991F820F931F880F991F880F991F07
:1009C000885D9E4F22E034E0FC013183208364E6A1
:1009D00070E080E090E00E9490000E94BE00FFCF97
:0409E000F894FFCFB9
:1009E4000000000200000000670000000000010099
:0809F400000002006400000095
:00000001FF
