:100000000C944D000C946C000C946C000C946C00DF
:100010000C946C000C946C000C946C000C946C00B0
:100020000C946C000C946C000C946C000C946C00A0
:100030000C946C000C94C7010C946C000C946C0034
:100040000C946C000C946C000C946C000C946C0080
:100050000C946C000C946C000C946C000C946C0070
:100060000C946C000C946C000C946C000C946C0060
:100070000C946C000C946C000C946C000C946C0050
:100080000C946C000C946C000C946C009F03A60301
:10009000DA03110478049804F50411241FBECFEF8D
:1000A000D0E4DEBFCDBF11E0A0E0B1E0E2EFFEE0C2
:1000B00000E00BBF02C007900D92AA31B107D9F73B
:1000C00021E0AAE1B1E001C01D92A236B207E1F73A
:1000D0000E94B6050C9477070C940000CF93DF9331
:1000E00000D01F92CDB7DEB789837B836A83898175
:1000F0008A3031F48A819B81BC018DE00E946E00C0
:1001000080EC90E0FC018081882F90E0807299273C
:10011000892BB1F386EC90E02981FC01208380E0FB
:1001200090E00F900F900F90DF91CF910895CF93B3
:10013000DF9300D000D0CDB7DEB769837A838B839D
:100140009C8389819A81AB81BC8180930E019093BD
:100150000F01A0931001B093110180910E019091B5
:100160000F01A0911001B091110180931B01909398
:100170001C01A0931D01B0931E0100000F900F9071
:100180000F900F90DF91CF910895CF93DF93CDB76C
:10019000DEB781E890E02BE0FC01208388E890E066
:1001A0002DE730E0FC01318320838FE690E022E0F0
:1001B000FC01208384E890E0FC0111821082809190
:1001C0000E0190910F01A0911001B0911101809347
:1001D0001B0190931C01A0931D01B0931E018FE59C
:1001E00090E02FE530E0F90120812068FC012083B8
:1001F0000000DF91CF910895CF93DF93CDB7DEB7A5
:1002000081E890E0FC0110820000DF91CF91089519
:100210000F931F93CF93DF931F92CDB7DEB7198251
:10022000A6C08981282F30E0C901880F991F820F4D
:10023000931F880F991F880F991F855D9E4FFC01A2
:1002400020813181428153818981682F70E0CB0107
:10025000880F991F860F971F880F991F880F991F66
:10026000895D9E4FFC0180819181A281B381281715
:1002700039074A075B0708F449C08981082F10E055
:100280008981282F30E0C901880F991F820F931FA1
:10029000880F991F880F991F815D9E4FFC01408137
:1002A00051818981282F30E0C901880F991F820F61
:1002B000931F880F991F880F991F8B5D9E4FFC011C
:1002C00080819181FA0109959C01C801880F991FCD
:1002D000800F911F880F991F880F991F8B5D9E4F6C
:1002E000FC01318320838981282F30E0C901880FE8
:1002F000991F820F931F880F991F880F991F855D83
:100300009E4FFC0110821182128213828981682F14
:1003100070E08981282F30E0C901880F991F820F72
:10032000931F880F991F880F991F855D9E4FFC01B1
:1003300080819181A281B38124E630E040E050E0E9
:10034000280F391F4A1F5B1FCB01880F991F860F8B
:10035000971F880F991F880F991F855D9E4FFC017D
:10036000208331834283538389818F5F898389818D
:10037000282F30E085E090E02817390708F451CFA6
:1003800000000F90DF91CF911F910F9108951F9260
:100390000F9200905F000F92112400905B000F926B
:1003A0002F933F934F935F936F937F938F939F937D
:1003B000AF93BF93EF93FF93CF93DF93CDB7DEB7A8
:1003C00080911B0190911C01A0911D01B0911E0113
:1003D0000197A109B10980931B0190931C01A0937F
:1003E0001D01B0931E0180911B0190911C01A091F1
:1003F0001D01B0911E01892B8A2B8B2B91F40E9439
:10040000080180910E0190910F01A0911001B0910F
:10041000110180931B0190931C01A0931D01B093C7
:100420001E010000DF91CF91FF91EF91BF91AF913D
:100430009F918F917F916F915F914F913F912F91FC
:100440000F9000925B000F9000925F000F901F9042
:100450001895CF93DF9300D01F92CDB7DEB78B8373
:100460001A82198227C088E290E028E0FC012083EC
:1004700088E290E028E230E0F9012081422F2B81D0
:10048000222F30E0098002C0359527950A94E2F7C3
:100490002170242BFC01208388E290E028E230E0E8
:1004A000F90120812260FC01208389819A810196D3
:1004B0009A83898389819A810897ACF288E290E0D7
:1004C00028E230E0F90120812460FC01208388E2E9
:1004D00090E0FC01108200000F900F900F90DF91D0
:1004E000CF910895CF93DF9300D0CDB7DEB79A8335
:1004F000898389819A81009719F0019771F01AC058
:100500001092200180911F01813099F481E090E0E8
:100510009A838983109221010CC080911F01813040
:1005200029F481E090E09A83898304C01A821982B9
:1005300001C0000089819A81009791F1019709F02B
:1005400032C080912101883090F480912101282FC0
:1005500030E081E090E002C0880F991F2A95E2F711
:10056000982F80912001892B809320010DC08091CC
:100570002101883048F080912101803128F4809158
:100580002001869580932001809121018F5F8093C7
:10059000210180912101803128F01092210102C0B7
:1005A000000001C0000089819A810F900F90DF91B7
:1005B000CF910895CF93DF9300D0CDB7DEB79A8364
:1005C000898389819A81009719F0019771F01AC087
:1005D0001092220180911F01823099F41092230120
:1005E00081E090E09A8389830CC080911F01823062
:1005F00029F481E090E09A83898304C01A821982E9
:1006000001C0000089819A81009751F1019709F09A
:1006100028C080912301282F30E081E090E002C0C3
:10062000880F991F2A95E2F7482F80912301282FE0
:1006300030E080E890E002C0959587952A95E2F732
:10064000842B8093220180912301873030F48091A4
:1006500023018F5F8093230104C01092230101C006
:10066000000089819A810F900F90DF91CF910895BA
:10067000CF93DF9300D0CDB7DEB79A83898389818A
:100680009A81009719F0019789F01CC0109212010D
:1006900080911F01833039F41092240181E090E0B1
:1006A0009A8389830FC01A8219820CC080911F011E
:1006B000833029F481E090E09A83898302C01A8212
:1006C0001982000089819A810097A9F0019709F0A9
:1006D00013C0809124018170882321F485E58093E3
:1006E000120103C08AEA80931201809124018F5F76
:1006F0008093240101C0000089819A810F900F909E
:10070000DF91CF910895CF93DF9300D0CDB7DEB7BF
:100710009A83898389819A81092E000CAA0BBB0BCD
:1007200040E050E026E030E0841B950B28173907A5
:1007300008F4B6C18A5B9F4FFC010C946E0781E000
:1007400090E09A83898310921F01B5C180E290E006
:10075000FC018081882F90E081709927892B79F0A6
:1007600080E290E0FC018081882F90E082709927E0
:10077000892B29F081E090E09A83898393C180E2FC
:1007800090E0FC018081882F90E081709927892B6F
:1007900009F088C180E290E0FC018081882F90E020
:1007A00082709927892B09F07DC182E090E09A83BD
:1007B000898378C180E290E0FC018081882F90E0FD
:1007C00081709927892B91F080E290E0FC01808173
:1007D000882F90E082709927892B41F083E090E088
:1007E0009A83898381E080931F015EC180E290E05B
:1007F000FC018081882F90E081709927892B09F076
:1008000053C180E290E0FC018081882F90E08270EB
:100810009927892B09F048C182E090E09A83898367
:1008200043C180E290E0FC018081882F90E08170DC
:100830009927892B79F480E290E0FC018081882F50
:1008400090E082709927892B29F484E090E09A83C4
:1008500089834DC080E290E0FC018081882F90E088
:1008600081709927892B79F080E290E0FC018081EA
:10087000882F90E082709927892B29F083E090E0FF
:100880009A83898334C080E290E0FC018081882FC4
:1008900090E081709927892B79F480E290E0FC0147
:1008A0008081882F90E082709927892B29F085E03C
:1008B00090E09A8389831BC080E290E0FC018081F4
:1008C000882F90E081709927892B09F4EFC080E28E
:1008D00090E0FC018081882F90E082709927892B1D
:1008E00009F0E4C086E090E09A838983DFC0DEC02F
:1008F00080E290E0FC018081882F90E08170992750
:10090000892B79F480E290E0FC018081882F90E0CF
:1009100082709927892B29F484E090E09A83898357
:10092000CAC081E090E09A83898310921F01C3C0FE
:1009300080E290E0FC018081882F90E0817099270F
:10094000892B79F480E290E0FC018081882F90E08F
:1009500082709927892B29F085E090E09A8389831A
:1009600043C080E290E0FC018081882F90E081709C
:100970009927892BE1F080E290E0FC018081882FAB
:1009800090E082709927892B91F083E090E09A8320
:10099000898380911F01833030F480911F018F5F24
:1009A00080931F0121C081E080931F011DC080E260
:1009B00090E0FC018081882F90E081709927892B3D
:1009C00009F076C080E290E0FC018081882F90E001
:1009D00082709927892B09F06BC084E090E09A839C
:1009E000898310921F0164C063C080E290E0FC0123
:1009F0008081882F90E082709927892B79F480E29A
:100A000090E0FC018081882F90E081709927892BEC
:100A100029F086E090E09A83898341C080E290E0EB
:100A2000FC018081882F90E081709927892BE1F06B
:100A300080E290E0FC018081882F90E0827099270D
:100A4000892B91F083E090E09A83898380911F0144
:100A5000823030F080911F01815080931F011FC0B0
:100A600083E080931F011BC080E290E0FC01808145
:100A7000882F90E081709927892BE1F480E290E043
:100A8000FC018081882F90E082709927892B91F456
:100A900084E090E09A83898310921F010BC00AC002
:100AA000000009C0000007C0000005C0000003C02E
:100AB000000001C0000089819A81019709F003C0FC
:100AC00010921F01000089819A810F900F90DF9191
:100AD000CF910895CF93DF9300D0CDB7DEB79A833F
:100AE000898389819A81009719F0019731F00AC0B2
:100AF00081E090E09A83898305C081E090E09A8349
:100B00008983000089819A81009731F1019709F06A
:100B100026C080911F01813029F4809120010E941C
:100B200029021CC080911F01823029F4809122018A
:100B30000E94290213C080911F01833029F4809103
:100B400012010E9429020AC080911F01882331F4FA
:100B500080E00E94290202C0000001C000008981DB
:100B60009A810F900F90DF91CF910895CF93DF93EB
:100B70001F92CDB7DEB781E290E0FC01108282E2E5
:100B800090E02FEFFC01208387E290E02FEFFC0143
:100B9000208388E290E0FC01108219828981282F4D
:100BA00030E0C901880F991F820F931F880F991F8A
:100BB000880F991F8B5D9E4FFC01118210828981E5
:100BC000282F30E0C901880F991F820F931F880FCB
:100BD000991F880F991F9C01295D3E4F88EC90E07A
:100BE000A0E0B0E0F90180839183A283B38389817F
:100BF000282F30E0C901880F991F820F931F880F9B
:100C0000991F880F991F855D9E4FFC0110821182EC
:100C1000128213828981282F30E0C901880F991F21
:100C2000820F931F880F991F880F991F815D9E4F18
:100C300022E732E0FC013183208389818F5F898341
:100C40008981282F30E0C901880F991F820F931FD7
:100C5000880F991F880F991F8B5D9E4FFC01118291
:100C600010828981282F30E0C901880F991F820FD7
:100C7000931F880F991F880F991F9C01295D3E4F74
:100C80008CE291E0A0E0B0E0F90180839183A2833F
:100C9000B3838981282F30E0C901880F991F820F03
:100CA000931F880F991F880F991F855D9E4FFC0128
:100CB00010821182128213828981282F30E0C901AB
:100CC000880F991F820F931F880F991F880F991FF4
:100CD000815D9E4F2AED32E0FC01318320838981C2
:100CE0008F5F89838981282F30E0C901880F991F80
:100CF000820F931F880F991F880F991F8B5D9E4F3E
:100D0000FC01118210828981282F30E0C901880FEF
:100D1000991F820F931F880F991F880F991F9C019D
:100D2000295D3E4F88EC90E0A0E0B0E0F9018083BF
:100D30009183A283B3838981282F30E0C901880F72
:100D4000991F820F931F880F991F880F991F855D28
:100D50009E4FFC0110821182128213828981282FFA
:100D600030E0C901880F991F820F931F880F991FC8
:100D7000880F991F815D9E4F28E333E0FC0131838A
:100D8000208389818F5F89838981282F30E0C90181
:100D9000880F991F820F931F880F991F880F991F23
:100DA0008B5D9E4FFC01118210828981282F30E0DB
:100DB000C901880F991F820F931F880F991F880FF1
:100DC000991F9C01295D3E4F84E690E0A0E0B0E0D1
:100DD000F90180839183A283B3838981282F30E036
:100DE000C901880F991F820F931F880F991F880FC1
:100DF000991F855D9E4FFC01108211821282138221
:100E00008981282F30E0C901880F991F820F931F15
:100E1000880F991F880F991F815D9E4F23E833E04B
:100E2000FC013183208389818F5F89838981282F09
:100E300030E0C901880F991F820F931F880F991FF7
:100E4000880F991F8B5D9E4FFC0111821082898152
:100E5000282F30E0C901880F991F820F931F880F38
:100E6000991F880F991F9C01295D3E4F84E690E0F1
:100E7000A0E0B0E0F90180839183A283B3838981EC
:100E8000282F30E0C901880F991F820F931F880F08
:100E9000991F880F991F855D9E4FFC01108211825A
:100EA000128213828981282F30E0C901880F991F8F
:100EB000820F931F880F991F880F991F815D9E4F86
:100EC0002AE635E0FC013183208364E670E080E0AF
:100ED00090E00E9497000E94C500FFCFEE0FFF1F19
:100EE0000024001C0BBE0790F691E02D0994F894A5
:020EF000FFCF32
:100EF20000000002000000006E000000000001007F
:0A0F02000000550500640000000027
:00000001FF
