:100000000C9454000C9473000C9473000C947300C3
:100010000C9473000C9473000C9473000C94730094
:100020000C9473000C9473000C9473000C94730084
:100030000C9473000C94CE010C9473000C94730018
:100040000C9473000C9473000C9473000C94730064
:100050000C9473000C9473000C9473000C94730054
:100060000C9473000C9473000C9473000C94730044
:100070000C9473000C9473000C9473000C94730034
:100080000C9473000C9473000C94730007040E041A
:1000900042047904E00400055D05EE05F505290636
:1000A0006006C706E706440711241FBECFEFD0E461
:1000B000DEBFCDBF11E0A0E0B1E0ECE8F4E100E08C
:1000C0000BBF02C007900D92AA31B107D9F721E00A
:1000D000AAE1B1E001C01D92AE36B207E1F70E947D
:1000E00028080C94440A0C940000CF93DF9300D0AE
:1000F0001F92CDB7DEB789837B836A8389818A307B
:1001000031F48A819B81BC018DE00E94750080ECF6
:1001100090E0FC018081882F90E080729927892BE4
:10012000B1F386EC90E02981FC01208380E090E02F
:100130000F900F900F90DF91CF910895CF93DF93A1
:1001400000D000D0CDB7DEB769837A838B839C83E0
:1001500089819A81AB81BC8180930E0190930F01BC
:10016000A0931001B093110180910E0190910F01A5
:10017000A0911001B091110180931B0190931C017B
:10018000A0931D01B0931E0100000F900F900F90DF
:100190000F90DF91CF910895CF93DF93CDB7DEB766
:1001A00081E890E02BE0FC01208388E890E02DE7D7
:1001B00030E0FC01318320838FE690E022E0FC01F7
:1001C000208384E890E0FC011182108280910E016E
:1001D00090910F01A0911001B091110180931B012A
:1001E00090931C01A0931D01B0931E018FE590E038
:1001F0002FE530E0F90120812068FC012083000018
:10020000DF91CF910895CF93DF93CDB7DEB781E82B
:1002100090E0FC0110820000DF91CF9108950F93D0
:100220001F93CF93DF931F92CDB7DEB71982A6C07D
:100230008981282F30E0C901880F991F820F931FF1
:10024000880F991F880F991F845D9E4FFC012081A4
:100250003181428153818981682F70E0CB01880F01
:10026000991F860F971F880F991F880F991F885D08
:100270009E4FFC0180819181A281B38128173907AB
:100280004A075B0708F449C08981082F10E089817B
:10029000282F30E0C901880F991F820F931F880F04
:1002A000991F880F991F805D9E4FFC0140815181ED
:1002B0008981282F30E0C901880F991F820F931F71
:1002C000880F991F880F991F8A5D9E4FFC018081BE
:1002D0009181FA0109959C01C801880F991F800F2F
:1002E000911F880F991F880F991F8A5D9E4FFC01EF
:1002F000318320838981282F30E0C901880F991F1D
:10030000820F931F880F991F880F991F845D9E4F3E
:10031000FC0110821182128213828981682F70E0A1
:100320008981282F30E0C901880F991F820F931F00
:10033000880F991F880F991F845D9E4FFC01808153
:100340009181A281B38124E630E040E050E0280FA3
:10035000391F4A1F5B1FCB01880F991F860F971FFC
:10036000880F991F880F991F845D9E4FFC01208381
:1003700031834283538389818F5F89838981282FC9
:1003800030E086E090E02817390708F451CF0000EC
:100390000F90DF91CF911F910F9108951F920F92AF
:1003A00000905F000F92112400905B000F922F933A
:1003B0003F934F935F936F937F938F939F93AF93ED
:1003C000BF93EF93FF93CF93DF93CDB7DEB78091C9
:1003D0001B0190911C01A0911D01B0911E0101977C
:1003E000A109B10980931B0190931C01A0931D01E9
:1003F000B0931E0180911B0190911C01A0911D01E1
:10040000B0911E01892B8A2B8B2B91F40E940F0136
:1004100080910E0190910F01A0911001B0911101F6
:1004200080931B0190931C01A0931D01B0931E01AA
:100430000000DF91CF91FF91EF91BF91AF919F911C
:100440008F917F916F915F914F913F912F910F907D
:1004500000925B000F9000925F000F901F90189524
:10046000CF93DF9300D01F92CDB7DEB78B831A8274
:10047000198227C088E290E028E0FC01208388E20E
:1004800090E028E230E0F9012081422F2B81222FD9
:1004900030E0098002C0359527950A94E2F7217073
:1004A000242BFC01208388E290E028E230E0F9016F
:1004B00020812260FC01208389819A8101969A83A0
:1004C000898389819A810897ACF288E290E028E2DA
:1004D00030E0F90120812460FC01208388E290E073
:1004E000FC01108200000F900F900F90DF91CF91D0
:1004F0000895CF93DF9300D01F92CDB7DEB78B83E3
:100500001A82198227C08BE290E028E0FC01208348
:100510008BE290E02BE230E0F9012081422F2B8129
:10052000222F30E0098002C0359527950A94E2F722
:100530002170242BFC0120838BE290E02BE230E041
:10054000F90120812260FC01208389819A81019632
:100550009A83898389819A810897ACF28BE290E033
:100560002BE230E0F90120812460FC0120838BE242
:1005700090E0FC01108200000F900F900F90DF912F
:10058000CF910895CF93DF9300D0CDB7DEB79A8394
:10059000898389819A81009719F0019791F022C08F
:1005A0001092210180911F01813021F08091200162
:1005B0008130B9F481E090E09A838983109222011E
:1005C00010C080911F01813021F080912001813085
:1005D00029F481E090E09A83898304C01A82198209
:1005E00001C0000089819A81009791F1019709F07B
:1005F00032C080912201853090F480912201282F11
:1006000030E081E090E002C0880F991F2A95E2F760
:10061000982F80912101892B809321010DC0809119
:100620002201853048F0809122018D3028F480919C
:100630002101869580932101809122018F5F809313
:100640002201809122018D3028F01092220102C0F7
:10065000000001C0000089819A810F900F90DF9106
:10066000CF910895CF93DF9300D0CDB7DEB79A83B3
:10067000898389819A81009719F0019791F022C0AE
:100680001092230180911F01823021F0809120017E
:100690008230B9F41092240181E090E09A8389833A
:1006A00010C080911F01823021F0809120018230A2
:1006B00029F481E090E09A83898304C01A82198228
:1006C00001C0000089819A81009751F1019709F0DA
:1006D00028C080912401282F30E081E090E002C002
:1006E000880F991F2A95E2F7482F80912401282F1F
:1006F00030E080E190E002C0959587952A95E2F779
:10070000842B8093230180912401843030F48091E4
:1007100024018F5F8093240104C01092240101C042
:10072000000089819A810F900F90DF91CF910895F9
:10073000CF93DF9300D0CDB7DEB79A8389838981C9
:100740009A81009719F00197A9F024C01092120124
:1007500080911F01833021F080912001833039F492
:100760001092250181E090E09A83898313C01A8258
:10077000198210C080911F01833021F080912001E7
:10078000833029F481E090E09A83898302C01A8241
:100790001982000089819A810097A9F0019709F0D8
:1007A00013C0809125018170882321F48AE0809311
:1007B000120103C085E180931201809125018F5FB2
:1007C0008093250101C0000089819A810F900F90CC
:1007D000DF91CF910895CF93DF9300D0CDB7DEB7EF
:1007E0009A83898389819A81092E000CAA0BBB0BFD
:1007F00040E050E026E030E0841B950B28173907D5
:1008000008F4B6C18A5B9F4FFC010C943B0A81E05F
:1008100090E09A83898310921F01B5C180E290E035
:10082000FC018081882F90E081709927892B79F0D5
:1008300080E290E0FC018081882F90E0827099270F
:10084000892B29F081E090E09A83898393C180E22B
:1008500090E0FC018081882F90E081709927892B9E
:1008600009F088C180E290E0FC018081882F90E04F
:1008700082709927892B09F07DC182E090E09A83EC
:10088000898378C180E290E0FC018081882F90E02C
:1008900081709927892B91F080E290E0FC018081A2
:1008A000882F90E082709927892B41F083E090E0B7
:1008B0009A83898381E080931F015EC180E290E08A
:1008C000FC018081882F90E081709927892B09F0A5
:1008D00053C180E290E0FC018081882F90E082701B
:1008E0009927892B09F048C182E090E09A83898397
:1008F00043C180E290E0FC018081882F90E081700C
:100900009927892B79F480E290E0FC018081882F7F
:1009100090E082709927892B29F484E090E09A83F3
:1009200089834DC080E290E0FC018081882F90E0B7
:1009300081709927892B79F080E290E0FC01808119
:10094000882F90E082709927892B29F083E090E02E
:100950009A83898334C080E290E0FC018081882FF3
:1009600090E081709927892B79F480E290E0FC0176
:100970008081882F90E082709927892B29F085E06B
:1009800090E09A8389831BC080E290E0FC01808123
:10099000882F90E081709927892B09F4EFC080E2BD
:1009A00090E0FC018081882F90E082709927892B4C
:1009B00009F0E4C086E090E09A838983DFC0DEC05E
:1009C00080E290E0FC018081882F90E0817099277F
:1009D000892B79F480E290E0FC018081882F90E0FF
:1009E00082709927892B29F484E090E09A83898387
:1009F000CAC081E090E09A83898310921F01C3C02E
:100A000080E290E0FC018081882F90E0817099273E
:100A1000892B79F480E290E0FC018081882F90E0BE
:100A200082709927892B29F085E090E09A83898349
:100A300043C080E290E0FC018081882F90E08170CB
:100A40009927892BE1F080E290E0FC018081882FDA
:100A500090E082709927892B91F083E090E09A834F
:100A6000898380911F01833030F480911F018F5F53
:100A700080931F0121C081E080931F011DC080E28F
:100A800090E0FC018081882F90E081709927892B6C
:100A900009F076C080E290E0FC018081882F90E030
:100AA00082709927892B09F06BC084E090E09A83CB
:100AB000898310921F0164C063C080E290E0FC0152
:100AC0008081882F90E082709927892B79F480E2C9
:100AD00090E0FC018081882F90E081709927892B1C
:100AE00029F086E090E09A83898341C080E290E01B
:100AF000FC018081882F90E081709927892BE1F09B
:100B000080E290E0FC018081882F90E0827099273C
:100B1000892B91F083E090E09A83898380911F0173
:100B2000823030F080911F01815080931F011FC0DF
:100B300083E080931F011BC080E290E0FC01808174
:100B4000882F90E081709927892BE1F480E290E072
:100B5000FC018081882F90E082709927892B91F485
:100B600084E090E09A83898310921F010BC00AC031
:100B7000000009C0000007C0000005C0000003C05D
:100B8000000001C0000089819A81019709F003C02B
:100B900010921F01000089819A810F900F90DF91C0
:100BA000CF910895CF93DF9300D0CDB7DEB79A836E
:100BB000898389819A81092E000CAA0BBB0B40E026
:100BC00050E026E030E0841B950B2817390708F425
:100BD000B6C1835B9F4FFC010C943B0A81E090E01F
:100BE0009A83898310922001B5C180E290E0FC01D4
:100BF0008081882F90E084709927892B79F080E29A
:100C000090E0FC018081882F90E088709927892BE3
:100C100029F081E090E09A83898393C180E290E09B
:100C2000FC018081882F90E084709927892B09F03E
:100C300088C180E290E0FC018081882F90E088707C
:100C40009927892B09F07DC182E090E09A838983FE
:100C500078C180E290E0FC018081882F90E0847070
:100C60009927892B91F080E290E0FC018081882F08
:100C700090E088709927892B41F083E090E09A8377
:100C8000898381E0809320015EC180E290E0FC01D5
:100C90008081882F90E084709927892B09F053C1B7
:100CA00080E290E0FC018081882F90E08870992795
:100CB000892B09F048C182E090E09A83898343C17F
:100CC00080E290E0FC018081882F90E08470992779
:100CD000892B79F480E290E0FC018081882F90E0FC
:100CE00088709927892B29F484E090E09A8389837E
:100CF0004DC080E290E0FC018081882F90E08470FC
:100D00009927892B79F080E290E0FC018081882F7F
:100D100090E088709927892B29F083E090E09A83EE
:100D2000898334C080E290E0FC018081882F90E0CC
:100D300084709927892B79F480E290E0FC0180810E
:100D4000882F90E088709927892B29F085E090E022
:100D50009A8389831BC080E290E0FC018081882F08
:100D600090E084709927892B09F4EFC080E290E02D
:100D7000FC018081882F90E088709927892B09F0E9
:100D8000E4C086E090E09A838983DFC0DEC080E221
:100D900090E0FC018081882F90E084709927892B56
:100DA00079F480E290E0FC018081882F90E08870E7
:100DB0009927892B29F484E090E09A838983CAC01B
:100DC00081E090E09A83898310922001C3C080E281
:100DD00090E0FC018081882F90E084709927892B16
:100DE00079F480E290E0FC018081882F90E08870A7
:100DF0009927892B29F085E090E09A83898343C065
:100E000080E290E0FC018081882F90E08470992737
:100E1000892BE1F080E290E0FC018081882F90E056
:100E200088709927892B91F083E090E09A838983D9
:100E300080912001833030F4809120018F5F809376
:100E4000200121C081E0809320011DC080E290E05C
:100E5000FC018081882F90E084709927892B09F00C
:100E600076C080E290E0FC018081882F90E088705D
:100E70009927892B09F06BC084E090E09A838983DD
:100E80001092200164C063C080E290E0FC01808188
:100E9000882F90E088709927892B79F480E290E080
:100EA000FC018081882F90E084709927892B29F09C
:100EB00086E090E09A83898341C080E290E0FC0163
:100EC0008081882F90E084709927892BE1F080E25F
:100ED00090E0FC018081882F90E088709927892B11
:100EE00091F083E090E09A838983809120018230A1
:100EF00030F0809120018150809320011FC083E059
:100F0000809320011BC080E290E0FC018081882F4B
:100F100090E084709927892BE1F480E290E0FC0155
:100F20008081882F90E088709927892B91F484E044
:100F300090E09A838983109220010BC00AC00000C0
:100F400009C0000007C0000005C0000003C0000089
:100F500001C0000089819A81019709F003C01092B5
:100F60002001000089819A810F900F90DF91CF912D
:100F70000895CF93DF9300D0CDB7DEB79A838983EE
:100F800089819A81009719F0019731F00AC081E0B8
:100F900090E09A83898305C081E090E09A838983F9
:100FA000000089819A81009709F448C0019709F0EF
:100FB00048C080911F01813029F4809121010E9455
:100FC000300219C080911F01823029F480912301E1
:100FD0000E94300210C080911F01833029F480915B
:100FE00012010E94300207C080911F01882319F46A
:100FF00080E00E94300280912001813029F48091AC
:1010000021010E9479021CC080912001823029F4C4
:10101000809123010E94790213C0809120018330C6
:1010200029F4809112010E9479020AC08091200166
:10103000882331F480E00E94790202C0000001C0E0
:10104000000089819A810F900F90DF91CF910895D0
:10105000CF93DF931F92CDB7DEB781E290E0FC0122
:10106000108282E290E02FEFFC0120838AE290E080
:101070002FEFFC0120838BE290E0FC01108287E2DD
:1010800090E02FEFFC01208388E290E0FC011082C9
:1010900019828981282F30E0C901880F991F820F9A
:1010A000931F880F991F880F991F8A5D9E4FFC011F
:1010B000118210828981282F30E0C901880F991F81
:1010C000820F931F880F991F880F991F9C01285D1D
:1010D0003E4F88EC90E0A0E0B0E0F901808391837E
:1010E000A283B3838981282F30E0C901880F991F1B
:1010F000820F931F880F991F880F991F845D9E4F41
:10110000FC0110821182128213828981282F30E023
:10111000C901880F991F820F931F880F991F880F8D
:10112000991F805D9E4F22EC32E0FC0131832083C9
:1011300089818F5F89838981282F30E0C901880FD9
:10114000991F820F931F880F991F880F991F8A5D1F
:101150009E4FFC01118210828981282F30E0C90145
:10116000880F991F820F931F880F991F880F991F4F
:101170009C01285D3E4F8CE291E0A0E0B0E0F901D7
:1011800080839183A283B3838981282F30E0C901B2
:10119000880F991F820F931F880F991F880F991F1F
:1011A000845D9E4FFC01108211821282138289811C
:1011B000282F30E0C901880F991F820F931F880FD5
:1011C000991F880F991F805D9E4F22E333E0FC0139
:1011D0003183208389818F5F89838981282F30E043
:1011E000C901880F991F820F931F880F991F880FBD
:1011F000991F8A5D9E4FFC01118210828981282FE0
:1012000030E0C901880F991F820F931F880F991F23
:10121000880F991F9C01285D3E4F88EC90E0A0E06C
:10122000B0E0F90180839183A283B3838981282F61
:1012300030E0C901880F991F820F931F880F991FF3
:10124000880F991F845D9E4FFC01108211821282CB
:1012500013828981282F30E0C901880F991F820FDE
:10126000931F880F991F880F991F805D9E4F28E953
:1012700033E0FC013183208389818F5F89838981F9
:10128000282F30E0C901880F991F820F931F880F04
:10129000991F880F991F8A5D9E4FFC011182108251
:1012A0008981282F30E0C901880F991F820F931F71
:1012B000880F991F880F991F9C01285D3E4F84E677
:1012C00090E0A0E0B0E0F90180839183A283B38332
:1012D0008981282F30E0C901880F991F820F931F41
:1012E000880F991F880F991F845D9E4FFC01108203
:1012F0001182128213828981282F30E0C901880F60
:10130000991F820F931F880F991F880F991F805D67
:101310009E4F2BEE33E0FC013183208389818F5F68
:1013200089838981282F30E0C901880F991F820F96
:10133000931F880F991F880F991F8A5D9E4FFC018C
:10134000118210828981282F30E0C901880F991FEE
:10135000820F931F880F991F880F991F9C01285D8A
:101360003E4F84E690E0A0E0B0E0F90180839183F5
:10137000A283B3838981282F30E0C901880F991F88
:10138000820F931F880F991F880F991F845D9E4FAE
:10139000FC0110821182128213828981282F30E091
:1013A000C901880F991F820F931F880F991F880FFB
:1013B000991F805D9E4F22ED35E0FC013183208333
:1013C00089818F5F89838981282F30E0C901880F47
:1013D000991F820F931F880F991F880F991F8A5D8D
:1013E0009E4FFC01118210828981282F30E0C901B3
:1013F000880F991F820F931F880F991F880F991FBD
:101400009C01285D3E4F84E690E0A0E0B0E0F90149
:1014100080839183A283B3838981282F30E0C9011F
:10142000880F991F820F931F880F991F880F991F8C
:10143000845D9E4FFC011082118212821382898189
:10144000282F30E0C901880F991F820F931F880F42
:10145000991F880F991F805D9E4F29EB37E0FC0193
:101460003183208364E670E080E090E00E949E007B
:101470000E94CC00FFCFEE0FFF1F0024001C0BBE0C
:0C1480000790F691E02D0994F894FFCF3E
:10148C0000000002000000007500000000000100D8
:0A149C000000550600640000000087
:00000001FF
